:100000000C9435000C945D000C945D000C945D0024
:100010000C945D000C945D000C945D000C945D00EC
:100020000C945D000C945D000C945D000C945D00DC
:100030000C945D000C945D000C940F010C945D0019
:100040000C945D000C945D000C9437010C945D00E1
:100050000C945D000C945D000C945D000C945D00AC
:100060000C945D000C945D00910111241FBECFEF34
:10007000D8E0DEBFCDBF11E0A0E0B1E0E6E2F4E001
:1000800002C005900D92AC30B107D9F721E0ACE089
:10009000B1E001C01D92A535B207E1F710E0C5E35C
:1000A000D0E004C02197FE010E940B02C433D107A7
:1000B000C9F70E945B010C9411020C94000014BC5F
:1000C00084B5826084BD85B5826085BDEEE6F0E0D2
:1000D00080818260808389E487BD78940895559AF1
:1000E000209A529A569A219A539A579A229A549A37
:1000F000249A239A259A08952B9A8AE08A95F1F7F3
:1001000000C02B988AE08A95F1F700C0089580918D
:100110003B0190913C01A0913D01B0913E01892BA2
:100120008A2B8B2B79F05A9AEEE2F1E08585968541
:10013000A785B0890197A109B10985879687A78707
:10014000B08B01C05A9880912A0190912B01A09107
:100150002C01B0912D01892B8A2B8B2B79F05B9A86
:10016000EDE1F1E085859685A785B0890197A10924
:10017000B10985879687A787B08B01C05B9880916E
:10018000190190911A01A0911B01B0911C01892BBA
:100190008A2B8B2B79F05C9AECE0F1E085859685D3
:1001A000A785B0890197A109B10985879687A78797
:1001B000B08B01C05C9885E38A95F1F7000095B19A
:1001C00080E1892785B9089580913A01882311F04B
:1001D0005D9A01C05D9880912901882311F05E9A93
:1001E00001C05E9880911801882311F05F9A01C0C8
:1001F0005F9880913901882311F0289801C0289ACE
:1002000080912801882311F0299801C0299A8091B2
:100210001701882311F02A9808952A9A08951F92A9
:100220000F920FB60F9211242F933F934F935F932A
:100230006F937F938F939F93AF93BF93EF93FF93AE
:100240000E94E4000E947C000E948700FF91EF91D1
:10025000BF91AF919F918F917F916F915F914F91DE
:100260003F912F910F900FBE0F901F9018951F92E6
:100270000F920FB60F9211242F933F934F935F93DA
:100280006F937F938F939F93AF93BF93EF93FF935E
:100290000E94E201FF91EF91BF91AF919F918F91E9
:1002A0007F916F915F914F913F912F910F900FBE72
:1002B0000F901F901895CF93DF93CDB7DEB72B9794
:1002C0000FB6F894DEBF0FBECDBF0E94CA010E94D8
:1002D0006F008BE0E0E0F1E0DE01119601900D92FD
:1002E0008A95E1F7CE0101960E94F5010E945F0018
:1002F00010922E0110922F011092300110923101B4
:1003000010921D0110921E0110921F0110922001E7
:1003100010920C0110920D0110920E0110920F011B
:10032000FFCFEEE2F1E04AE050E060E070E04587A8
:1003300056876787708B20E2248315821486138684
:100340008FE599E2ABECBAE387839087A187B28708
:100350001682EDE1F1E0458756876787708B24832D
:1003600031E035831486138687839087A187B2870F
:100370001682ECE0F1E0458756876787708B24830F
:1003800022E025831486138687839087A187B2870E
:10039000168208951092C50087E68093C400E1ECB0
:1003A000F0E088E180838081806880838EE08093A4
:1003B000C2000895E0ECF0E0908195FFFDCF8093BE
:1003C000C600089580914001843120F081E080933F
:1003D0003F0108959091C600E82FF0E0EF5BFE4FDB
:1003E00090838F5F8093400108950F931F93CF9365
:1003F000FC018081882359F08F01C0E00E94DA015E
:10040000CF5FF801EC0FF11D80818111F7CFCF9103
:100410001F910F910895EE0FFF1F0590F491E02DAD
:060420000994F894FFCFDF
:0C0426004B726F6D20763030340A0000FD
:00000001FF
