S00F00006B726F6D3030342E73726563C8
S11300000C9435000C945D000C945D000C945D0020
S11300100C945D000C945D000C945D000C945D00E8
S11300200C945D000C945D000C945D000C945D00D8
S11300300C945D000C945D000C940F010C945D0015
S11300400C945D000C945D000C9437010C945D00DD
S11300500C945D000C945D000C945D000C945D00A8
S11300600C945D000C945D00940111241FBECFEF2D
S1130070D8E0DEBFCDBF11E0A0E0B1E0E6E0F4E0FF
S113008002C005900D92AC30B107D9F721E0ACE085
S1130090B1E001C01D92A535B207E1F710E0C5E358
S11300A0D0E004C02197FE010E94FB01C433D107B4
S11300B0C9F70E945E010C9401020C94000014BC68
S11300C084B5826084BD85B5826085BDEEE6F0E0CE
S11300D080818260808389E487BD78940895559AED
S11300E0209A529A569A219A539A579A229A549A33
S11300F0249A239A259A08952B9A8AE08A95F1F7EF
S113010000C02B988AE08A95F1F700C00895809189
S1130110510190915201A0915301B0915401892B46
S11301208A2B8B2B79F05A9AE4E4F1E08585968545
S1130130A785B0890197A109B10985879687A78703
S1130140B08B01C05A988091400190914101A091D7
S11301504201B0914301892B8A2B8B2B79F05B9A56
S1130160E3E3F1E085859685A785B0890197A10928
S1130170B10985879687A787B08B01C05B9880916A
S11301802F0190913001A0913101B0913201892B5E
S11301908A2B8B2B79F05C9AE2E2F1E085859685D7
S11301A0A785B0890197A109B10985879687A78793
S11301B0B08B01C05C9885E38A95F1F7000095B196
S11301C080E1892785B9089580915001882311F031
S11301D05D9A01C05D9880913F01882311F05E9A79
S11301E001C05E9880912E01882311F05F9A01C0AE
S11301F05F9880914F01882311F0289801C0289AB4
S113020080913E01882311F0299801C0299A809198
S11302102D01882311F02A9808952A9A08951F928F
S11302200F920FB60F9211242F933F934F935F9326
S11302306F937F938F939F93AF93BF93EF93FF93AA
S11302400E94E4000E947C000E948700FF91EF91CD
S1130250BF91AF919F918F917F916F915F914F91DA
S11302603F912F910F900FBE0F901F9018951F92E2
S11302700F920FB60F9211248F939F93EF93FF93D6
S1130280F89480910D019091C600E82FF0E0E25FB0
S1130290FE4F90838F5F80930D01843128F081E0BD
S11302A080930C0110920D017894FF91EF919F912E
S11302B08F910F900FBE0F901F901895CF93DF93DF
S11302C0CDB7DEB72B970FB6F894DEBF0FBECDBF08
S11302D00E94CD010E946F008BE0E0E0F1E0DE01BE
S11302E0119601900D928A95E1F7CE0101960E9434
S11302F0E5010E945F0010924401109245011092A2
S11303004601109247011092330110923401109269
S1130310350110923601109222011092230110929D
S1130320240110922501FFCFE4E4F1E04AE050E01B
S113033060E070E0458756876787708B20E22483EE
S11303401582148613868FE599E2ABECBAE38783B2
S11303509087A187B2871682E3E3F1E04587568749
S11303606787708B248331E03583148613868783F3
S11303709087A187B2871682E2E2F1E0458756872B
S11303806787708B248322E02583148613868783F2
S11303909087A187B287168208951092C50087E6D8
S11303A08093C400E1ECF0E088E180838081806880
S11303B080838EE08093C2000895E0ECF0E09081A9
S11303C095FFFDCF8093C60008950F931F93CF939D
S11303D0FC018081882359F08F01C0E00E94DD0177
S11303E0CF5FF801EC0FF11D80818111F7CFCF9120
S11303F01F910F910895EE0FFF1F0590F491E02DCA
S10904000994F894FFCFFB
S10F04064B726F6D20763030340A000019
S9030000FC
